0000000005872005440001301198080130119808     OVER 0100963136FAIL      
0000000005539164170000229325800022932580     OVER 0100963136FAIL      
00000000057029830500058175308805817530880100963136     OVER FAIL      
00000000103992940900077171542807717154280100963136     OVER FAIL      
0000000005789490570503787129370378712937     OVER 0100963136FAIL      
00000000000000000000000000000000000000000000000000     OVER PASS      
00000000057068752000062630105606263010560100963136     OVER FAIL      
00000000104018739105079751363307975136330100963136     OVER FAIL      
00000000000000000005     OVER      OVER 00000000000000000000PASS      
000000000017174527000643710876064371087600000000000000000000PASS      
00000000056204288100083557898008355789800100963136     OVER FAIL      
0000000005371351360504922881330492288133     OVER 0100963136FAIL      
0000000005541704310600483339860048333986     OVER 0100963136FAIL      
00000000000000000000000000000000000000000000000000     OVER PASS      
000000000033300448000108819328010881932800000000000000000000PASS      
00000000000000000000000000000000000000000000000000     OVER PASS      
00000000000000000000000000000000000000000000000000     OVER PASS      
00000000000000000000000000000000000000000000000000     OVER PASS      
0000000010238033920002328555520232855552     OVER 0100963136FAIL      
00000000059559932805096999821309699982130100963136     OVER FAIL      
00000000000000000000000000000000000000000000000000     OVER PASS      
00000000000000000000000000000000000000000000000000     OVER PASS      
00000000000000000000000000000000000000000000000000     OVER PASS      
000000000058855361050516826985051682698500000000000000000000PASS      
0000000006039777280503977728050397772805     OVER 0100963136FAIL      
00000000104005836800078461132807846113280100963136     OVER FAIL      
00000000000000000005     OVER      OVER 00000000000000000000PASS      
00000000000000000010     OVER      OVER 00000000000000000000PASS      
0000000005453906550502440982090244098209     OVER 0100963136FAIL      
00000000057016723200057427225605742722560100963136     OVER FAIL      
000000000066977792000255328256025532825600000000000000000000PASS 
